{
  "contractName": "ProductContract",
  "abi": [
    {
      "inputs": [],
      "payable": false,
      "stateMutability": "nonpayable",
      "type": "constructor"
    },
    {
      "anonymous": false,
      "inputs": [
        {
          "indexed": false,
          "internalType": "uint256",
          "name": "id",
          "type": "uint256"
        },
        {
          "indexed": false,
          "internalType": "bool",
          "name": "bought",
          "type": "bool"
        }
      ],
      "name": "ProductBought",
      "type": "event"
    },
    {
      "anonymous": false,
      "inputs": [
        {
          "indexed": false,
          "internalType": "uint256",
          "name": "id",
          "type": "uint256"
        },
        {
          "indexed": false,
          "internalType": "address",
          "name": "sellerAddress",
          "type": "address"
        },
        {
          "indexed": false,
          "internalType": "string",
          "name": "name",
          "type": "string"
        },
        {
          "indexed": false,
          "internalType": "string",
          "name": "description",
          "type": "string"
        },
        {
          "indexed": false,
          "internalType": "string",
          "name": "imageId",
          "type": "string"
        },
        {
          "indexed": false,
          "internalType": "bool",
          "name": "bought",
          "type": "bool"
        }
      ],
      "name": "ProductCreated",
      "type": "event"
    },
    {
      "constant": true,
      "inputs": [
        {
          "internalType": "uint256",
          "name": "",
          "type": "uint256"
        }
      ],
      "name": "allProductId",
      "outputs": [
        {
          "internalType": "uint256",
          "name": "",
          "type": "uint256"
        }
      ],
      "payable": false,
      "stateMutability": "view",
      "type": "function"
    },
    {
      "constant": true,
      "inputs": [
        {
          "internalType": "uint256",
          "name": "",
          "type": "uint256"
        }
      ],
      "name": "availableProductId",
      "outputs": [
        {
          "internalType": "uint256",
          "name": "",
          "type": "uint256"
        }
      ],
      "payable": false,
      "stateMutability": "view",
      "type": "function"
    },
    {
      "constant": true,
      "inputs": [],
      "name": "nextId",
      "outputs": [
        {
          "internalType": "uint256",
          "name": "",
          "type": "uint256"
        }
      ],
      "payable": false,
      "stateMutability": "view",
      "type": "function"
    },
    {
      "constant": true,
      "inputs": [],
      "name": "productAddress",
      "outputs": [
        {
          "internalType": "address",
          "name": "",
          "type": "address"
        }
      ],
      "payable": false,
      "stateMutability": "view",
      "type": "function"
    },
    {
      "constant": true,
      "inputs": [],
      "name": "productCount",
      "outputs": [
        {
          "internalType": "uint256",
          "name": "",
          "type": "uint256"
        }
      ],
      "payable": false,
      "stateMutability": "view",
      "type": "function"
    },
    {
      "constant": true,
      "inputs": [
        {
          "internalType": "uint256",
          "name": "",
          "type": "uint256"
        }
      ],
      "name": "products",
      "outputs": [
        {
          "internalType": "uint256",
          "name": "id",
          "type": "uint256"
        },
        {
          "internalType": "address",
          "name": "sellerAddress",
          "type": "address"
        },
        {
          "internalType": "string",
          "name": "name",
          "type": "string"
        },
        {
          "internalType": "string",
          "name": "description",
          "type": "string"
        },
        {
          "internalType": "string",
          "name": "imageId",
          "type": "string"
        },
        {
          "internalType": "bool",
          "name": "bought",
          "type": "bool"
        },
        {
          "internalType": "address",
          "name": "userAddress",
          "type": "address"
        }
      ],
      "payable": false,
      "stateMutability": "view",
      "type": "function"
    },
    {
      "constant": false,
      "inputs": [
        {
          "internalType": "string",
          "name": "_name",
          "type": "string"
        },
        {
          "internalType": "string",
          "name": "_description",
          "type": "string"
        },
        {
          "internalType": "string",
          "name": "_imageId",
          "type": "string"
        }
      ],
      "name": "createProduct",
      "outputs": [],
      "payable": false,
      "stateMutability": "nonpayable",
      "type": "function"
    },
    {
      "constant": true,
      "inputs": [
        {
          "internalType": "uint256",
          "name": "_id",
          "type": "uint256"
        }
      ],
      "name": "getProductById",
      "outputs": [
        {
          "internalType": "uint256",
          "name": "_uid",
          "type": "uint256"
        },
        {
          "internalType": "address",
          "name": "_sellerAddress",
          "type": "address"
        },
        {
          "internalType": "string",
          "name": "_name",
          "type": "string"
        },
        {
          "internalType": "string",
          "name": "_description",
          "type": "string"
        },
        {
          "internalType": "string",
          "name": "_imageId",
          "type": "string"
        },
        {
          "internalType": "bool",
          "name": "bought",
          "type": "bool"
        }
      ],
      "payable": false,
      "stateMutability": "view",
      "type": "function"
    },
    {
      "constant": false,
      "inputs": [
        {
          "internalType": "uint256",
          "name": "_id",
          "type": "uint256"
        }
      ],
      "name": "buyProduct",
      "outputs": [],
      "payable": false,
      "stateMutability": "nonpayable",
      "type": "function"
    },
    {
      "constant": true,
      "inputs": [],
      "name": "getAvailableProductId",
      "outputs": [
        {
          "internalType": "uint256[]",
          "name": "ids",
          "type": "uint256[]"
        }
      ],
      "payable": false,
      "stateMutability": "view",
      "type": "function"
    },
    {
      "constant": true,
      "inputs": [],
      "name": "getSellerProductId",
      "outputs": [
        {
          "internalType": "uint256[]",
          "name": "ids",
          "type": "uint256[]"
        }
      ],
      "payable": false,
      "stateMutability": "view",
      "type": "function"
    },
    {
      "constant": true,
      "inputs": [],
      "name": "getBoughtProductId",
      "outputs": [
        {
          "internalType": "uint256[]",
          "name": "ids",
          "type": "uint256[]"
        }
      ],
      "payable": false,
      "stateMutability": "view",
      "type": "function"
    }
  ],
  "bytecode": "0x608060405260008055600060025534801561001957600080fd5b5030600160006101000a81548173ffffffffffffffffffffffffffffffffffffffff021916908373ffffffffffffffffffffffffffffffffffffffff160217905550611c8b8061006a6000396000f3fe608060405234801561001057600080fd5b50600436106100b45760003560e01c80637010437c116100715780637010437c146103c85780637acc0b20146104275780638642269e1461061e578063d768468b1461064c578063e0f6ef8714610835578063e5428be514610853576100b4565b80630b6d77d0146100b95780631c431183146100fb5780632944c06f146101455780633f70c2b4146101875780635fe53f081461034b57806361b8ce8c146103aa575b600080fd5b6100e5600480360360208110156100cf57600080fd5b81019080803590602001909291905050506108b2565b6040518082815260200191505060405180910390f35b6101036108d3565b604051808273ffffffffffffffffffffffffffffffffffffffff1673ffffffffffffffffffffffffffffffffffffffff16815260200191505060405180910390f35b6101716004803603602081101561015b57600080fd5b81019080803590602001909291905050506108f9565b6040518082815260200191505060405180910390f35b6101b36004803603602081101561019d57600080fd5b810190808035906020019092919050505061091a565b604051808781526020018673ffffffffffffffffffffffffffffffffffffffff1673ffffffffffffffffffffffffffffffffffffffff16815260200180602001806020018060200185151515158152602001848103845288818151815260200191508051906020019080838360005b8381101561023d578082015181840152602081019050610222565b50505050905090810190601f16801561026a5780820380516001836020036101000a031916815260200191505b50848103835287818151815260200191508051906020019080838360005b838110156102a3578082015181840152602081019050610288565b50505050905090810190601f1680156102d05780820380516001836020036101000a031916815260200191505b50848103825286818151815260200191508051906020019080838360005b838110156103095780820151818401526020810190506102ee565b50505050905090810190601f1680156103365780820380516001836020036101000a031916815260200191505b50995050505050505050505060405180910390f35b610353610ce3565b6040518080602001828103825283818151815260200191508051906020019060200280838360005b8381101561039657808201518184015260208101905061037b565b505050509050019250505060405180910390f35b6103b2610d78565b6040518082815260200191505060405180910390f35b6103d0610d7e565b6040518080602001828103825283818151815260200191508051906020019060200280838360005b838110156104135780820151818401526020810190506103f8565b505050509050019250505060405180910390f35b6104536004803603602081101561043d57600080fd5b8101908080359060200190929190505050610e13565b604051808881526020018773ffffffffffffffffffffffffffffffffffffffff1673ffffffffffffffffffffffffffffffffffffffff168152602001806020018060200180602001861515151581526020018573ffffffffffffffffffffffffffffffffffffffff1673ffffffffffffffffffffffffffffffffffffffff168152602001848103845289818151815260200191508051906020019080838360005b8381101561050f5780820151818401526020810190506104f4565b50505050905090810190601f16801561053c5780820380516001836020036101000a031916815260200191505b50848103835288818151815260200191508051906020019080838360005b8381101561057557808201518184015260208101905061055a565b50505050905090810190601f1680156105a25780820380516001836020036101000a031916815260200191505b50848103825287818151815260200191508051906020019080838360005b838110156105db5780820151818401526020810190506105c0565b50505050905090810190601f1680156106085780820380516001836020036101000a031916815260200191505b509a505050505050505050505060405180910390f35b61064a6004803603602081101561063457600080fd5b810190808035906020019092919050505061106a565b005b6108336004803603606081101561066257600080fd5b810190808035906020019064010000000081111561067f57600080fd5b82018360208201111561069157600080fd5b803590602001918460018302840111640100000000831117156106b357600080fd5b91908080601f016020809104026020016040519081016040528093929190818152602001838380828437600081840152601f19601f8201169050808301925050505050505091929192908035906020019064010000000081111561071657600080fd5b82018360208201111561072857600080fd5b8035906020019184600183028401116401000000008311171561074a57600080fd5b91908080601f016020809104026020016040519081016040528093929190818152602001838380828437600081840152601f19601f820116905080830192505050505050509192919290803590602001906401000000008111156107ad57600080fd5b8201836020820111156107bf57600080fd5b803590602001918460018302840111640100000000831117156107e157600080fd5b91908080601f016020809104026020016040519081016040528093929190818152602001838380828437600081840152601f19601f82011690508083019250505050505050919291929050505061165c565b005b61083d611ae8565b6040518082815260200191505060405180910390f35b61085b611aee565b6040518080602001828103825283818151815260200191508051906020019060200280838360005b8381101561089e578082015181840152602081019050610883565b505050509050019250505060405180910390f35b600681815481106108bf57fe5b906000526020600020016000915090505481565b600160009054906101000a900473ffffffffffffffffffffffffffffffffffffffff1681565b6007818154811061090657fe5b906000526020600020016000915090505481565b6000806060806060600061092c611b46565b600360008981526020019081526020016000206040518060e0016040529081600082015481526020016001820160009054906101000a900473ffffffffffffffffffffffffffffffffffffffff1673ffffffffffffffffffffffffffffffffffffffff1673ffffffffffffffffffffffffffffffffffffffff168152602001600282018054600181600116156101000203166002900480601f016020809104026020016040519081016040528092919081815260200182805460018160011615610100020316600290048015610a435780601f10610a1857610100808354040283529160200191610a43565b820191906000526020600020905b815481529060010190602001808311610a2657829003601f168201915b50505050508152602001600382018054600181600116156101000203166002900480601f016020809104026020016040519081016040528092919081815260200182805460018160011615610100020316600290048015610ae55780601f10610aba57610100808354040283529160200191610ae5565b820191906000526020600020905b815481529060010190602001808311610ac857829003601f168201915b50505050508152602001600482018054600181600116156101000203166002900480601f016020809104026020016040519081016040528092919081815260200182805460018160011615610100020316600290048015610b875780601f10610b5c57610100808354040283529160200191610b87565b820191906000526020600020905b815481529060010190602001808311610b6a57829003601f168201915b505050505081526020016005820160009054906101000a900460ff161515151581526020016005820160019054906101000a900473ffffffffffffffffffffffffffffffffffffffff1673ffffffffffffffffffffffffffffffffffffffff1673ffffffffffffffffffffffffffffffffffffffff16815250509050600073ffffffffffffffffffffffffffffffffffffffff168673ffffffffffffffffffffffffffffffffffffffff161415610ca6576040517f08c379a00000000000000000000000000000000000000000000000000000000081526004018080602001828103825260158152602001807f50726f6475637420646f65736e6f7420657869742e000000000000000000000081525060200191505060405180910390fd5b806000015181602001518260400151836060015184608001518560a001518393508292508191509650965096509650965096505091939550919395565b6060600460003373ffffffffffffffffffffffffffffffffffffffff1673ffffffffffffffffffffffffffffffffffffffff168152602001908152602001600020805480602002602001604051908101604052809291908181526020018280548015610d6e57602002820191906000526020600020905b815481526020019060010190808311610d5a575b5050505050905090565b60025481565b6060600560003373ffffffffffffffffffffffffffffffffffffffff1673ffffffffffffffffffffffffffffffffffffffff168152602001908152602001600020805480602002602001604051908101604052809291908181526020018280548015610e0957602002820191906000526020600020905b815481526020019060010190808311610df5575b5050505050905090565b60036020528060005260406000206000915090508060000154908060010160009054906101000a900473ffffffffffffffffffffffffffffffffffffffff1690806002018054600181600116156101000203166002900480601f016020809104026020016040519081016040528092919081815260200182805460018160011615610100020316600290048015610eeb5780601f10610ec057610100808354040283529160200191610eeb565b820191906000526020600020905b815481529060010190602001808311610ece57829003601f168201915b505050505090806003018054600181600116156101000203166002900480601f016020809104026020016040519081016040528092919081815260200182805460018160011615610100020316600290048015610f895780601f10610f5e57610100808354040283529160200191610f89565b820191906000526020600020905b815481529060010190602001808311610f6c57829003601f168201915b505050505090806004018054600181600116156101000203166002900480601f0160208091040260200160405190810160405280929190818152602001828054600181600116156101000203166002900480156110275780601f10610ffc57610100808354040283529160200191611027565b820191906000526020600020905b81548152906001019060200180831161100a57829003601f168201915b5050505050908060050160009054906101000a900460ff16908060050160019054906101000a900473ffffffffffffffffffffffffffffffffffffffff16905087565b611072611b46565b600360008381526020019081526020016000206040518060e0016040529081600082015481526020016001820160009054906101000a900473ffffffffffffffffffffffffffffffffffffffff1673ffffffffffffffffffffffffffffffffffffffff1673ffffffffffffffffffffffffffffffffffffffff168152602001600282018054600181600116156101000203166002900480601f0160208091040260200160405190810160405280929190818152602001828054600181600116156101000203166002900480156111895780601f1061115e57610100808354040283529160200191611189565b820191906000526020600020905b81548152906001019060200180831161116c57829003601f168201915b50505050508152602001600382018054600181600116156101000203166002900480601f01602080910402602001604051908101604052809291908181526020018280546001816001161561010002031660029004801561122b5780601f106112005761010080835404028352916020019161122b565b820191906000526020600020905b81548152906001019060200180831161120e57829003601f168201915b50505050508152602001600482018054600181600116156101000203166002900480601f0160208091040260200160405190810160405280929190818152602001828054600181600116156101000203166002900480156112cd5780601f106112a2576101008083540402835291602001916112cd565b820191906000526020600020905b8154815290600101906020018083116112b057829003601f168201915b505050505081526020016005820160009054906101000a900460ff161515151581526020016005820160019054906101000a900473ffffffffffffffffffffffffffffffffffffffff1673ffffffffffffffffffffffffffffffffffffffff1673ffffffffffffffffffffffffffffffffffffffff168152505090508060a00151156113c1576040517f08c379a00000000000000000000000000000000000000000000000000000000081526004018080602001828103825260178152602001807f50726f6475637420616c726561647920626f756768742e00000000000000000081525060200191505060405180910390fd5b806020015173ffffffffffffffffffffffffffffffffffffffff163373ffffffffffffffffffffffffffffffffffffffff1614611466576040517f08c379a000000000000000000000000000000000000000000000000000000000815260040180806020018281038252601c8152602001807f43616e6e6f742062757920796f7572206f776e2070726f647563742e0000000081525060200191505060405180910390fd5b60018160a001901515908115158152505080600360008481526020019081526020016000206000820151816000015560208201518160010160006101000a81548173ffffffffffffffffffffffffffffffffffffffff021916908373ffffffffffffffffffffffffffffffffffffffff16021790555060408201518160020190805190602001906114f8929190611bb1565b506060820151816003019080519060200190611515929190611bb1565b506080820151816004019080519060200190611532929190611bb1565b5060a08201518160050160006101000a81548160ff02191690831515021790555060c08201518160050160016101000a81548173ffffffffffffffffffffffffffffffffffffffff021916908373ffffffffffffffffffffffffffffffffffffffff1602179055509050506000600560003373ffffffffffffffffffffffffffffffffffffffff1673ffffffffffffffffffffffffffffffffffffffff16815260200190815260200160002090508060016000540390806001815401808255809150509060018203906000526020600020016000909192909190915055507ffacca0842177f235ef94d39500a6757bacd22254782ef4c39c8b68c260db1e1c838360a0015160405180838152602001821515151581526020019250505060405180910390a1505050565b60608390506000815114156116d9576040517f08c379a00000000000000000000000000000000000000000000000000000000081526004018080602001828103825260148152602001807f56616c6964206e616d652072657175697265642e00000000000000000000000081525060200191505060405180910390fd5b6040518060e0016040528060025481526020013373ffffffffffffffffffffffffffffffffffffffff168152602001858152602001848152602001838152602001600015158152602001600073ffffffffffffffffffffffffffffffffffffffff168152506003600060025481526020019081526020016000206000820151816000015560208201518160010160006101000a81548173ffffffffffffffffffffffffffffffffffffffff021916908373ffffffffffffffffffffffffffffffffffffffff16021790555060408201518160020190805190602001906117c0929190611bb1565b5060608201518160030190805190602001906117dd929190611bb1565b5060808201518160040190805190602001906117fa929190611bb1565b5060a08201518160050160006101000a81548160ff02191690831515021790555060c08201518160050160016101000a81548173ffffffffffffffffffffffffffffffffffffffff021916908373ffffffffffffffffffffffffffffffffffffffff160217905550905050600460003373ffffffffffffffffffffffffffffffffffffffff1673ffffffffffffffffffffffffffffffffffffffff1681526020019081526020016000206002549080600181540180825580915050906001820390600052602060002001600090919290919091505550600760025490806001815401808255809150509060018203906000526020600020016000909192909190915055507f46a21ef2a77633d04a092ca83991cff043dd5c3a6cfe0ab0d9a5cc1bc7e9410d600254338686866000604051808781526020018673ffffffffffffffffffffffffffffffffffffffff1673ffffffffffffffffffffffffffffffffffffffff16815260200180602001806020018060200185151515158152602001848103845288818151815260200191508051906020019080838360005b838110156119b2578082015181840152602081019050611997565b50505050905090810190601f1680156119df5780820380516001836020036101000a031916815260200191505b50848103835287818151815260200191508051906020019080838360005b83811015611a185780820151818401526020810190506119fd565b50505050905090810190601f168015611a455780820380516001836020036101000a031916815260200191505b50848103825286818151815260200191508051906020019080838360005b83811015611a7e578082015181840152602081019050611a63565b50505050905090810190601f168015611aab5780820380516001836020036101000a031916815260200191505b50995050505050505050505060405180910390a1600080815480929190600101919050555060026000815480929190600101919050555050505050565b60005481565b60606007805480602002602001604051908101604052809291908181526020018280548015611b3c57602002820191906000526020600020905b815481526020019060010190808311611b28575b5050505050905090565b6040518060e0016040528060008152602001600073ffffffffffffffffffffffffffffffffffffffff168152602001606081526020016060815260200160608152602001600015158152602001600073ffffffffffffffffffffffffffffffffffffffff1681525090565b828054600181600116156101000203166002900490600052602060002090601f016020900481019282601f10611bf257805160ff1916838001178555611c20565b82800160010185558215611c20579182015b82811115611c1f578251825591602001919060010190611c04565b5b509050611c2d9190611c31565b5090565b611c5391905b80821115611c4f576000816000905550600101611c37565b5090565b9056fea265627a7a72315820a3abbd3b86e1455d21fac21d2b525d56391ce752f4c7da9242679c6f22c708ff64736f6c63430005100032",
  "source": "// SPDX-License-Identifier: GPL-3.0\r\npragma solidity >=0.4.22 <0.9.0;\r\n\r\ncontract ProductContract {\r\n  uint256 public productCount = 0;\r\n  address public productAddress;\r\n  uint256 public nextId = 0;\r\n\r\n  struct Product {\r\n    uint256 id;\r\n    address sellerAddress;\r\n    string name;\r\n    string description;\r\n    string imageId;\r\n    bool bought;\r\n    address userAddress;\r\n  }\r\n\r\n  mapping(uint256 => Product) public products;\r\n\r\n  event ProductCreated(\r\n    uint256 id,\r\n    address sellerAddress,\r\n    string name,\r\n    string description,\r\n    string imageId,\r\n    bool bought\r\n  );\r\n\r\n  event ProductBought(uint256 id, bool bought);\r\n\r\n  mapping(address => uint256[])  sellerProductId;\r\n  mapping(address => uint256[])  boughtProductId;\r\n\r\n  uint256[] public  allProductId;\r\n  uint256[] public  availableProductId;\r\n\r\n  modifier onlyValidName(bytes32 name) {\r\n    // Only valid names allowed\r\n    require(!(name == 0x0), 'Name not valid');\r\n    _;\r\n  }\r\n\r\n  constructor() public {\r\n    productAddress = address(this);\r\n  }\r\n\r\n  function createProduct(\r\n    string memory _name,\r\n    string memory _description,\r\n    string memory _imageId\r\n  ) public {\r\n    bytes memory tempName = bytes(_name); // Uses memory\r\n    require(!(tempName.length == 0), 'Valid name required.');\r\n    products[nextId] = Product(\r\n      nextId,\r\n      msg.sender,\r\n      _name,\r\n      _description,\r\n      _imageId,\r\n      false,\r\n      address(0)\r\n    );\r\n    sellerProductId[msg.sender].push(nextId);\r\n    availableProductId.push(nextId);\r\n    emit ProductCreated(\r\n      nextId,\r\n      msg.sender,\r\n      _name,\r\n      _description,\r\n      _imageId,\r\n      false\r\n    );\r\n    productCount++;\r\n    nextId++;\r\n  }\r\n\r\n  function getProductById(uint256 _id)\r\n    public\r\n    view\r\n    returns (\r\n      uint256 _uid,\r\n      address _sellerAddress,\r\n      string memory _name,\r\n      string memory _description,\r\n      string memory _imageId,\r\n      bool bought\r\n    )\r\n  {\r\n    Product memory _p = products[_id];\r\n    require(!(_sellerAddress == address(0)), 'Product doesnot exit.');\r\n    return (\r\n      _p.id,\r\n      _p.sellerAddress,\r\n      _p.name,\r\n      _p.description,\r\n      _p.imageId,\r\n      _p.bought\r\n    );\r\n  }\r\n\r\n  function buyProduct(uint256 _id) public {\r\n    Product memory _product = products[_id];\r\n    require(!_product.bought, 'Product already bought.');\r\n    require(\r\n      msg.sender == _product.sellerAddress,\r\n      'Cannot buy your own product.'\r\n    );\r\n    _product.bought = true;\r\n    products[_id] = _product;\r\n    uint256[] storage aid = boughtProductId[msg.sender];\r\n    aid.push(productCount - 1);\r\n    emit ProductBought(_id, _product.bought);\r\n  }\r\n\r\n  function getAvailableProductId() public view returns (uint256[] memory ids) {\r\n    return availableProductId;\r\n  }\r\n\r\n  function getSellerProductId() public view returns (uint256[] memory ids) {\r\n    return sellerProductId[msg.sender];\r\n  }\r\n\r\n  function getBoughtProductId() public view returns (uint256[] memory ids) {\r\n    return boughtProductId[msg.sender];\r\n  }\r\n}\r\n",
  "sourcePath": "D:/project/blockchain/eth-todo-list/contracts/ProductContract.sol",
  "compiler": {
    "name": "solc",
    "version": "0.5.16+commit.9c3226ce.Emscripten.clang"
  },
  "schemaVersion": "3.3.3",
  "updatedAt": "2021-02-01T20:08:27.813Z",
  "networkType": "ethereum",
  "devdoc": {
    "methods": {}
  },
  "userdoc": {
    "methods": {}
  }
}