{
  "contractName": "UserContract",
  "abi": [
    {
      "anonymous": false,
      "inputs": [
        {
          "indexed": true,
          "internalType": "address",
          "name": "_address",
          "type": "address"
        },
        {
          "indexed": false,
          "internalType": "bytes32",
          "name": "_name",
          "type": "bytes32"
        },
        {
          "indexed": false,
          "internalType": "uint256",
          "name": "_created_at",
          "type": "uint256"
        }
      ],
      "name": "UserCreated",
      "type": "event"
    },
    {
      "anonymous": false,
      "inputs": [
        {
          "indexed": true,
          "internalType": "address",
          "name": "_address",
          "type": "address"
        }
      ],
      "name": "UserDeleted",
      "type": "event"
    },
    {
      "anonymous": false,
      "inputs": [
        {
          "indexed": true,
          "internalType": "address",
          "name": "_address",
          "type": "address"
        },
        {
          "indexed": false,
          "internalType": "bytes32",
          "name": "_name",
          "type": "bytes32"
        }
      ],
      "name": "UserUpdated",
      "type": "event"
    },
    {
      "constant": true,
      "inputs": [
        {
          "internalType": "uint256",
          "name": "",
          "type": "uint256"
        }
      ],
      "name": "allUsers",
      "outputs": [
        {
          "internalType": "address",
          "name": "",
          "type": "address"
        }
      ],
      "payable": false,
      "stateMutability": "view",
      "type": "function"
    },
    {
      "constant": true,
      "inputs": [],
      "name": "login",
      "outputs": [
        {
          "internalType": "bytes32",
          "name": "",
          "type": "bytes32"
        }
      ],
      "payable": false,
      "stateMutability": "view",
      "type": "function"
    },
    {
      "constant": false,
      "inputs": [
        {
          "internalType": "bytes32",
          "name": "name",
          "type": "bytes32"
        }
      ],
      "name": "signup",
      "outputs": [
        {
          "internalType": "bytes32",
          "name": "",
          "type": "bytes32"
        }
      ],
      "payable": true,
      "stateMutability": "payable",
      "type": "function"
    },
    {
      "constant": false,
      "inputs": [
        {
          "internalType": "bytes32",
          "name": "name",
          "type": "bytes32"
        }
      ],
      "name": "update",
      "outputs": [
        {
          "internalType": "bytes32",
          "name": "_username",
          "type": "bytes32"
        }
      ],
      "payable": true,
      "stateMutability": "payable",
      "type": "function"
    },
    {
      "constant": false,
      "inputs": [],
      "name": "destroy",
      "outputs": [],
      "payable": false,
      "stateMutability": "nonpayable",
      "type": "function"
    },
    {
      "constant": true,
      "inputs": [],
      "name": "checkUser",
      "outputs": [
        {
          "internalType": "bool",
          "name": "",
          "type": "bool"
        }
      ],
      "payable": false,
      "stateMutability": "view",
      "type": "function"
    }
  ],
  "bytecode": "0x608060405234801561001057600080fd5b506108ab806100206000396000f3fe6080604052600436106100555760003560e01c80635c1397de1461005a57806383197ef01461009c5780638b147245146100b3578063a2bdedf4146100f5578063b34e97e814610170578063c15625471461019b575b600080fd5b6100866004803603602081101561007057600080fd5b81019080803590602001909291905050506101ca565b6040518082815260200191505060405180910390f35b3480156100a857600080fd5b506100b161046e565b005b6100df600480360360208110156100c957600080fd5b8101908080359060200190929190505050610555565b6040518082815260200191505060405180910390f35b34801561010157600080fd5b5061012e6004803603602081101561011857600080fd5b8101908080359060200190929190505050610751565b604051808273ffffffffffffffffffffffffffffffffffffffff1673ffffffffffffffffffffffffffffffffffffffff16815260200191505060405180910390f35b34801561017c57600080fd5b5061018561078d565b6040518082815260200191505060405180910390f35b3480156101a757600080fd5b506101b0610827565b604051808215151515815260200191505060405180910390f35b6000816000801b811415610246576040517f08c379a000000000000000000000000000000000000000000000000000000000815260040180806020018281038252600e8152602001807f4e616d65206e6f742076616c696400000000000000000000000000000000000081525060200191505060405180910390fd5b6000801b6000803373ffffffffffffffffffffffffffffffffffffffff1673ffffffffffffffffffffffffffffffffffffffff16815260200190815260200160002060000154141561042357826000803373ffffffffffffffffffffffffffffffffffffffff1673ffffffffffffffffffffffffffffffffffffffff16815260200190815260200160002060000181905550426000803373ffffffffffffffffffffffffffffffffffffffff1673ffffffffffffffffffffffffffffffffffffffff1681526020019081526020016000206001018190555060013390806001815401808255809150509060018203906000526020600020016000909192909190916101000a81548173ffffffffffffffffffffffffffffffffffffffff021916908373ffffffffffffffffffffffffffffffffffffffff160217905550503373ffffffffffffffffffffffffffffffffffffffff167f75a78c3506795933e208740942b53541acf3eb85d5ca731a904e358b120d61168442604051808381526020018281526020019250505060405180910390a26000803373ffffffffffffffffffffffffffffffffffffffff1673ffffffffffffffffffffffffffffffffffffffff168152602001908152602001600020600001549150610468565b6000803373ffffffffffffffffffffffffffffffffffffffff1673ffffffffffffffffffffffffffffffffffffffff1681526020019081526020016000206000015491505b50919050565b6000801b6000803373ffffffffffffffffffffffffffffffffffffffff1673ffffffffffffffffffffffffffffffffffffffff1681526020019081526020016000206000015414156104bf57600080fd5b6000803373ffffffffffffffffffffffffffffffffffffffff1673ffffffffffffffffffffffffffffffffffffffff168152602001908152602001600020600080820160009055600182016000905550503373ffffffffffffffffffffffffffffffffffffffff167f4bc56f1321288dfb5b416cb3a7fd188723979f9e866c91d88eccf7fca039d03960405160405180910390a2565b6000816000801b8114156105d1576040517f08c379a000000000000000000000000000000000000000000000000000000000815260040180806020018281038252600e8152602001807f4e616d65206e6f742076616c696400000000000000000000000000000000000081525060200191505060405180910390fd5b6000801b6000803373ffffffffffffffffffffffffffffffffffffffff1673ffffffffffffffffffffffffffffffffffffffff16815260200190815260200160002060000154141561062257600080fd5b6000801b6000803373ffffffffffffffffffffffffffffffffffffffff1673ffffffffffffffffffffffffffffffffffffffff168152602001908152602001600020600001541461074a57826000803373ffffffffffffffffffffffffffffffffffffffff1673ffffffffffffffffffffffffffffffffffffffff168152602001908152602001600020600001819055503373ffffffffffffffffffffffffffffffffffffffff167f6c46eb453c5219d7665e4dda98f6200b9c6978d989806dfc2d2b17dc03609c53846040518082815260200191505060405180910390a26000803373ffffffffffffffffffffffffffffffffffffffff1673ffffffffffffffffffffffffffffffffffffffff16815260200190815260200160002060000154915061074b565b5b50919050565b6001818154811061075e57fe5b906000526020600020016000915054906101000a900473ffffffffffffffffffffffffffffffffffffffff1681565b60008060001b6000803373ffffffffffffffffffffffffffffffffffffffff1673ffffffffffffffffffffffffffffffffffffffff1681526020019081526020016000206000015414156107e057600080fd5b6000803373ffffffffffffffffffffffffffffffffffffffff1673ffffffffffffffffffffffffffffffffffffffff16815260200190815260200160002060000154905090565b60008060001b6000803373ffffffffffffffffffffffffffffffffffffffff1673ffffffffffffffffffffffffffffffffffffffff16815260200190815260200160002060000154141590509056fea265627a7a72315820621d545baf9c84159adf795c659663d158171cc4dea0b688d3bbe660ec17946364736f6c63430005100032",
  "source": "// SPDX-License-Identifier: GPL-3.0\r\npragma solidity >=0.4.22 <0.9.0;\r\n\r\n/// @dev basic authentication contract\r\n/// @notice tracks list of all users\r\ncontract UserContract {\r\n  struct User {\r\n    bytes32 name;\r\n    uint256 created_at;\r\n  }\r\n\r\n  event UserCreated(\r\n    address indexed _address,\r\n    bytes32 _name,\r\n    uint256 _created_at\r\n  );\r\n  event UserUpdated(address indexed _address, bytes32 _name);\r\n  event UserDeleted(address indexed _address);\r\n\r\n  mapping(address => User) private users;\r\n\r\n  // public array that contains list of all users that have registered\r\n  address[] public allUsers;\r\n  modifier onlyExistingUser {\r\n    // Check if user exists or terminate\r\n\r\n    require(!(users[msg.sender].name == 0x0));\r\n    _;\r\n  }\r\n\r\n  modifier onlyValidName(bytes32 name) {\r\n    // Only valid names allowed\r\n\r\n    require(!(name == 0x0), 'Name not valid');\r\n    _;\r\n  }\r\n\r\n  /// @return username\r\n  function login() public view onlyExistingUser returns (bytes32) {\r\n    return (users[msg.sender].name);\r\n  }\r\n\r\n  /// @param name the username to be created.\r\n  /// @dev checks if user exists\r\n  /// If yes return user name\r\n  /// If no, check if name was sent\r\n  /// If yes, create and return user\r\n  /// @return username of created user\r\n  function signup(bytes32 name)\r\n    public\r\n    payable\r\n    onlyValidName(name)\r\n    returns (bytes32)\r\n  {\r\n    if (users[msg.sender].name == 0x0) {\r\n      users[msg.sender].name = name;\r\n      users[msg.sender].created_at = block.timestamp;\r\n\r\n      allUsers.push(msg.sender);\r\n      emit UserCreated(msg.sender, name, block.timestamp);\r\n      return (users[msg.sender].name);\r\n    }\r\n\r\n    return (users[msg.sender].name);\r\n  }\r\n\r\n  function update(bytes32 name)\r\n    public\r\n    payable\r\n    onlyValidName(name)\r\n    onlyExistingUser\r\n    returns (bytes32 _username)\r\n  {\r\n    // Update user name.\r\n\r\n    if (users[msg.sender].name != 0x0) {\r\n      users[msg.sender].name = name;\r\n      emit UserUpdated(msg.sender, name);\r\n      return (users[msg.sender].name);\r\n    }\r\n  }\r\n\r\n  /// @dev destroy existing username\r\n  function destroy() public onlyExistingUser {\r\n    delete users[msg.sender];\r\n    emit UserDeleted(msg.sender);\r\n  }\r\n\r\n  function checkUser() public view returns (bool) {\r\n    return !(users[msg.sender].name == 0x0);\r\n  }\r\n}\r\n",
  "sourcePath": "D:/project/blockchain/eth-todo-list/contracts/UserContract.sol",
  "compiler": {
    "name": "solc",
    "version": "0.5.16+commit.9c3226ce.Emscripten.clang"
  },
  "schemaVersion": "3.3.3",
  "updatedAt": "2021-01-31T16:42:26.184Z",
  "networkType": "ethereum",
  "devdoc": {
    "details": "basic authentication contract",
    "methods": {
      "destroy()": {
        "details": "destroy existing username"
      },
      "login()": {
        "return": "username"
      },
      "signup(bytes32)": {
        "details": "checks if user exists If yes return user name If no, check if name was sent If yes, create and return user",
        "params": {
          "name": "the username to be created."
        },
        "return": "username of created user"
      }
    }
  },
  "userdoc": {
    "methods": {},
    "notice": "tracks list of all users"
  }
}