{
  "contractName": "UserContract",
  "abi": [
    {
      "anonymous": false,
      "inputs": [
        {
          "indexed": true,
          "internalType": "address",
          "name": "_address",
          "type": "address"
        },
        {
          "indexed": false,
          "internalType": "string",
          "name": "_name",
          "type": "string"
        },
        {
          "indexed": false,
          "internalType": "uint256",
          "name": "_created_at",
          "type": "uint256"
        }
      ],
      "name": "UserCreated",
      "type": "event"
    },
    {
      "anonymous": false,
      "inputs": [
        {
          "indexed": true,
          "internalType": "address",
          "name": "_address",
          "type": "address"
        }
      ],
      "name": "UserDeleted",
      "type": "event"
    },
    {
      "anonymous": false,
      "inputs": [
        {
          "indexed": true,
          "internalType": "address",
          "name": "_address",
          "type": "address"
        },
        {
          "indexed": false,
          "internalType": "string",
          "name": "_name",
          "type": "string"
        }
      ],
      "name": "UserUpdated",
      "type": "event"
    },
    {
      "constant": true,
      "inputs": [
        {
          "internalType": "uint256",
          "name": "",
          "type": "uint256"
        }
      ],
      "name": "allUsers",
      "outputs": [
        {
          "internalType": "address",
          "name": "",
          "type": "address"
        }
      ],
      "payable": false,
      "stateMutability": "view",
      "type": "function"
    },
    {
      "constant": true,
      "inputs": [],
      "name": "login",
      "outputs": [
        {
          "internalType": "string",
          "name": "",
          "type": "string"
        }
      ],
      "payable": false,
      "stateMutability": "view",
      "type": "function"
    },
    {
      "constant": false,
      "inputs": [
        {
          "internalType": "string",
          "name": "name",
          "type": "string"
        }
      ],
      "name": "signup",
      "outputs": [
        {
          "internalType": "string",
          "name": "",
          "type": "string"
        }
      ],
      "payable": true,
      "stateMutability": "payable",
      "type": "function"
    },
    {
      "constant": false,
      "inputs": [
        {
          "internalType": "string",
          "name": "name",
          "type": "string"
        }
      ],
      "name": "update",
      "outputs": [
        {
          "internalType": "string",
          "name": "_username",
          "type": "string"
        }
      ],
      "payable": true,
      "stateMutability": "payable",
      "type": "function"
    },
    {
      "constant": false,
      "inputs": [],
      "name": "destroy",
      "outputs": [],
      "payable": false,
      "stateMutability": "nonpayable",
      "type": "function"
    },
    {
      "constant": true,
      "inputs": [],
      "name": "checkUser",
      "outputs": [
        {
          "internalType": "bool",
          "name": "",
          "type": "bool"
        }
      ],
      "payable": false,
      "stateMutability": "view",
      "type": "function"
    }
  ],
  "bytecode": "0x608060405234801561001057600080fd5b506112c2806100206000396000f3fe6080604052600436106100555760003560e01c80633d7403a31461005a578063519c63771461018e57806383197ef0146102c2578063a2bdedf4146102d9578063b34e97e814610354578063c1562547146103e4575b600080fd5b6101136004803603602081101561007057600080fd5b810190808035906020019064010000000081111561008d57600080fd5b82018360208201111561009f57600080fd5b803590602001918460018302840111640100000000831117156100c157600080fd5b91908080601f016020809104026020016040519081016040528093929190818152602001838380828437600081840152601f19601f820116905080830192505050505050509192919290505050610413565b6040518080602001828103825283818151815260200191508051906020019080838360005b83811015610153578082015181840152602081019050610138565b50505050905090810190601f1680156101805780820380516001836020036101000a031916815260200191505b509250505060405180910390f35b610247600480360360208110156101a457600080fd5b81019080803590602001906401000000008111156101c157600080fd5b8201836020820111156101d357600080fd5b803590602001918460018302840111640100000000831117156101f557600080fd5b91908080601f016020809104026020016040519081016040528093929190818152602001838380828437600081840152601f19601f8201169050808301925050505050505091929192905050506107d6565b6040518080602001828103825283818151815260200191508051906020019080838360005b8381101561028757808201518184015260208101905061026c565b50505050905090810190601f1680156102b45780820380516001836020036101000a031916815260200191505b509250505060405180910390f35b3480156102ce57600080fd5b506102d7610c4c565b005b3480156102e557600080fd5b50610312600480360360208110156102fc57600080fd5b8101908080359060200190929190505050610e41565b604051808273ffffffffffffffffffffffffffffffffffffffff1673ffffffffffffffffffffffffffffffffffffffff16815260200191505060405180910390f35b34801561036057600080fd5b50610369610e7d565b6040518080602001828103825283818151815260200191508051906020019080838360005b838110156103a957808201518184015260208101905061038e565b50505050905090810190601f1680156103d65780820380516001836020036101000a031916815260200191505b509250505060405180910390f35b3480156103f057600080fd5b506103f96110b4565b604051808215151515815260200191505060405180910390f35b6060816060819050600081511415610493576040517f08c379a000000000000000000000000000000000000000000000000000000000815260040180806020018281038252600e8152602001807f4e616d65206e6f742076616c696400000000000000000000000000000000000081525060200191505060405180910390fd5b60606000803373ffffffffffffffffffffffffffffffffffffffff1673ffffffffffffffffffffffffffffffffffffffff1681526020019081526020016000206000018054600181600116156101000203166002900480601f01602080910402602001604051908101604052809291908181526020018280546001816001161561010002031660029004801561056a5780601f1061053f5761010080835404028352916020019161056a565b820191906000526020600020905b81548152906001019060200180831161054d57829003601f168201915b505050505090506000815114156105e9576040517f08c379a000000000000000000000000000000000000000000000000000000000815260040180806020018281038252600e8152602001807f55736572206e6f7420657869742e00000000000000000000000000000000000081525060200191505060405180910390fd5b846000803373ffffffffffffffffffffffffffffffffffffffff1673ffffffffffffffffffffffffffffffffffffffff168152602001908152602001600020600001908051906020019061063e9291906111a0565b503373ffffffffffffffffffffffffffffffffffffffff167fd6136f3cad7c60bfc24bbf1548f39f766ca8bce104bf9adde3deb6237dec51df866040518080602001828103825283818151815260200191508051906020019080838360005b838110156106b857808201518184015260208101905061069d565b50505050905090810190601f1680156106e55780820380516001836020036101000a031916815260200191505b509250505060405180910390a26000803373ffffffffffffffffffffffffffffffffffffffff1673ffffffffffffffffffffffffffffffffffffffff1681526020019081526020016000206000018054600181600116156101000203166002900480601f0160208091040260200160405190810160405280929190818152602001828054600181600116156101000203166002900480156107c75780601f1061079c576101008083540402835291602001916107c7565b820191906000526020600020905b8154815290600101906020018083116107aa57829003601f168201915b50505050509350505050919050565b6060816060819050600081511415610856576040517f08c379a000000000000000000000000000000000000000000000000000000000815260040180806020018281038252600e8152602001807f4e616d65206e6f742076616c696400000000000000000000000000000000000081525060200191505060405180910390fd5b60606000803373ffffffffffffffffffffffffffffffffffffffff1673ffffffffffffffffffffffffffffffffffffffff1681526020019081526020016000206000018054600181600116156101000203166002900480601f01602080910402602001604051908101604052809291908181526020018280546001816001161561010002031660029004801561092d5780601f106109025761010080835404028352916020019161092d565b820191906000526020600020905b81548152906001019060200180831161091057829003601f168201915b5050505050905060008151146109ab576040517f08c379a00000000000000000000000000000000000000000000000000000000081526004018080602001828103825260188152602001807f5573657220616c726561647920726567697374657265642e000000000000000081525060200191505060405180910390fd5b846000803373ffffffffffffffffffffffffffffffffffffffff1673ffffffffffffffffffffffffffffffffffffffff1681526020019081526020016000206000019080519060200190610a009291906111a0565b50426000803373ffffffffffffffffffffffffffffffffffffffff1673ffffffffffffffffffffffffffffffffffffffff1681526020019081526020016000206001018190555060013390806001815401808255809150509060018203906000526020600020016000909192909190916101000a81548173ffffffffffffffffffffffffffffffffffffffff021916908373ffffffffffffffffffffffffffffffffffffffff160217905550503373ffffffffffffffffffffffffffffffffffffffff167f196a149a119e63a40fb6cf63cc95b680cc1e42d985ede26ed52f560d7b68f8f386426040518080602001838152602001828103825284818151815260200191508051906020019080838360005b83811015610b2d578082015181840152602081019050610b12565b50505050905090810190601f168015610b5a5780820380516001836020036101000a031916815260200191505b50935050505060405180910390a26000803373ffffffffffffffffffffffffffffffffffffffff1673ffffffffffffffffffffffffffffffffffffffff1681526020019081526020016000206000018054600181600116156101000203166002900480601f016020809104026020016040519081016040528092919081815260200182805460018160011615610100020316600290048015610c3d5780601f10610c1257610100808354040283529160200191610c3d565b820191906000526020600020905b815481529060010190602001808311610c2057829003601f168201915b50505050509350505050919050565b60606000803373ffffffffffffffffffffffffffffffffffffffff1673ffffffffffffffffffffffffffffffffffffffff1681526020019081526020016000206000018054600181600116156101000203166002900480601f016020809104026020016040519081016040528092919081815260200182805460018160011615610100020316600290048015610d235780601f10610cf857610100808354040283529160200191610d23565b820191906000526020600020905b815481529060010190602001808311610d0657829003601f168201915b50505050509050600081511415610da2576040517f08c379a000000000000000000000000000000000000000000000000000000000815260040180806020018281038252600e8152602001807f55736572206e6f7420657869742e00000000000000000000000000000000000081525060200191505060405180910390fd5b6000803373ffffffffffffffffffffffffffffffffffffffff1673ffffffffffffffffffffffffffffffffffffffff16815260200190815260200160002060008082016000610df19190611220565b600182016000905550503373ffffffffffffffffffffffffffffffffffffffff167f4bc56f1321288dfb5b416cb3a7fd188723979f9e866c91d88eccf7fca039d03960405160405180910390a250565b60018181548110610e4e57fe5b906000526020600020016000915054906101000a900473ffffffffffffffffffffffffffffffffffffffff1681565b6060806000803373ffffffffffffffffffffffffffffffffffffffff1673ffffffffffffffffffffffffffffffffffffffff1681526020019081526020016000206000018054600181600116156101000203166002900480601f016020809104026020016040519081016040528092919081815260200182805460018160011615610100020316600290048015610f555780601f10610f2a57610100808354040283529160200191610f55565b820191906000526020600020905b815481529060010190602001808311610f3857829003601f168201915b50505050509050600081511415610fd4576040517f08c379a000000000000000000000000000000000000000000000000000000000815260040180806020018281038252600e8152602001807f55736572206e6f7420657869742e00000000000000000000000000000000000081525060200191505060405180910390fd5b6000803373ffffffffffffffffffffffffffffffffffffffff1673ffffffffffffffffffffffffffffffffffffffff1681526020019081526020016000206000018054600181600116156101000203166002900480601f0160208091040260200160405190810160405280929190818152602001828054600181600116156101000203166002900480156110a95780601f1061107e576101008083540402835291602001916110a9565b820191906000526020600020905b81548152906001019060200180831161108c57829003601f168201915b505050505091505090565b600060606000803373ffffffffffffffffffffffffffffffffffffffff1673ffffffffffffffffffffffffffffffffffffffff1681526020019081526020016000206000018054600181600116156101000203166002900480601f01602080910402602001604051908101604052809291908181526020018280546001816001161561010002031660029004801561118d5780601f106111625761010080835404028352916020019161118d565b820191906000526020600020905b81548152906001019060200180831161117057829003601f168201915b5050505050905060008151141591505090565b828054600181600116156101000203166002900490600052602060002090601f016020900481019282601f106111e157805160ff191683800117855561120f565b8280016001018555821561120f579182015b8281111561120e5782518255916020019190600101906111f3565b5b50905061121c9190611268565b5090565b50805460018160011615610100020316600290046000825580601f106112465750611265565b601f0160209004906000526020600020908101906112649190611268565b5b50565b61128a91905b8082111561128657600081600090555060010161126e565b5090565b9056fea265627a7a7231582062afdfcaae2787a90cb12f317e4a8c79d8f2e97cfa58afabda395e2d8cb9f62e64736f6c63430005100032",
  "source": "// SPDX-License-Identifier: GPL-3.0\r\npragma solidity >=0.4.22 <0.9.0;\r\n\r\n/// @dev basic authentication contract\r\n/// @notice tracks list of all users\r\n\r\ncontract UserContract {\r\n  struct User {\r\n    string name;\r\n    uint256 created_at;\r\n  }\r\n\r\n  event UserCreated(\r\n    address indexed _address,\r\n    string _name,\r\n    uint256 _created_at\r\n  );\r\n  event UserUpdated(address indexed _address, string _name);\r\n  event UserDeleted(address indexed _address);\r\n\r\n  mapping(address => User) private users;\r\n\r\n  // public array that contains list of all users that have registered\r\n  address[] public allUsers;\r\n  modifier onlyExistingUser {\r\n    // Check if user exists or terminate\r\n    bytes memory tempName = bytes(users[msg.sender].name); // Uses memory\r\n    require(tempName.length != 0, 'User not exit.');\r\n    _;\r\n  }\r\n\r\n  modifier onlyValidName(string memory name) {\r\n    // Only valid names allowed\r\n    bytes memory tempName = bytes(name);\r\n    require(tempName.length != 0, 'Name not valid');\r\n    _;\r\n  }\r\n\r\n  /// @return username\r\n  function login() public view onlyExistingUser returns (string memory) {\r\n    return (users[msg.sender].name);\r\n  }\r\n\r\n  /// @param name the username to be created.\r\n  /// @dev checks if user exists\r\n  /// If yes return user name\r\n  /// If no, check if name was sent\r\n  /// If yes, create and return user\r\n  /// @return username of created user\r\n  function signup(string memory name)\r\n    public\r\n    payable\r\n    onlyValidName(name)\r\n    returns (string memory)\r\n  {\r\n    bytes memory tempName = bytes(users[msg.sender].name);\r\n    require(tempName.length == 0, 'User already registered.');\r\n    users[msg.sender].name = name;\r\n    users[msg.sender].created_at = block.timestamp;\r\n    allUsers.push(msg.sender);\r\n    emit UserCreated(msg.sender, name, block.timestamp);\r\n    return (users[msg.sender].name);\r\n  }\r\n\r\n  function update(string memory name)\r\n    public\r\n    payable\r\n    onlyValidName(name)\r\n    onlyExistingUser\r\n    returns (string memory _username)\r\n  {\r\n    // Update user name.\r\n\r\n    users[msg.sender].name = name;\r\n    emit UserUpdated(msg.sender, name);\r\n    return (users[msg.sender].name);\r\n  }\r\n\r\n  /// @dev destroy existing username\r\n  function destroy() public onlyExistingUser {\r\n    delete users[msg.sender];\r\n    emit UserDeleted(msg.sender);\r\n  }\r\n\r\n  function checkUser() public view returns (bool) {\r\n    bytes memory tempName = bytes(users[msg.sender].name);\r\n    return (tempName.length != 0);\r\n  }\r\n}\r\n",
  "sourcePath": "D:/project/blockchain/eth-todo-list/contracts/UserContract.sol",
  "compiler": {
    "name": "solc",
    "version": "0.5.16+commit.9c3226ce.Emscripten.clang"
  },
  "schemaVersion": "3.3.3",
  "updatedAt": "2021-02-01T20:08:27.828Z",
  "networkType": "ethereum",
  "devdoc": {
    "details": "basic authentication contract",
    "methods": {
      "destroy()": {
        "details": "destroy existing username"
      },
      "login()": {
        "return": "username"
      },
      "signup(string)": {
        "details": "checks if user exists If yes return user name If no, check if name was sent If yes, create and return user",
        "params": {
          "name": "the username to be created."
        },
        "return": "username of created user"
      }
    }
  },
  "userdoc": {
    "methods": {},
    "notice": "tracks list of all users"
  }
}